:020000020000FC
:100000000C9410001FE027E339EC3A95F1F72A959C
:10001000D9F71A95C1F711E01A95F1F70000089584
:100020000FE80AB90FEF04B900E00BB905B904E015
:100030000EBF0FE50DBF589859985A985B98589A7B
:100040000E94020009B1013081F0013121F441E147
:1000500058980C948000013219F442E10C9480000D
:10006000013419F443E10C948000589859985A9837
:100070005B98599A0E94020009B1003279F002316E
:1000800019F444E10C948000023219F445E10C9417
:100090008000023419F446E10C9480005898599875
:1000A0005A985B985A9A0E94020009B1043079F07C
:1000B000043119F447E10C948000043219F448E14A
:1000C0000C948000043419F449E10C948000589891
:1000D00059985A985B985B9A0E94020009B10830BF
:1000E00079F0083119F44AE10C948000083219F4CF
:1000F00040E10C948000083419F44CE10C94800029
:10010000589859985A985B9845B90E94020040E067
:0601100045B90C941B0030
:00000001FF
